:020000040800F2
:10000000502700209505000881020008830200089F
:100010008F0200089B020008A702000800000000F1
:10002000000000000000000000000000B302000813
:10003000B502000800000000AB050008B702000888
:10004000AF050008AF050008AF050008BB020008B7
:10005000AF050008AF050008B9020008AF050008A9
:10006000AF050008AF050008AF050008AF050008A0
:10007000AF050008AF050008AF050008AF05000890
:10008000AF050008AF050008AF050008AF05000880
:10009000AF050008AF050008AF050008AF05000870
:1000A000AF050008AF050008AF050008AF05000860
:1000B000AF050008AF050008AF050008AF05000850
:1000C000AF050008AF050008AF050008AF05000840
:1000D000AF05000831210008394E0008AF050008BF
:1000E000AF050008AF050008AF050008AF05000820
:1000F000AF050008AF050008AF050008AF05000810
:10010000AF050008AF050008AF050008AF050008FF
:10011000AF050008AF050008AF050008AF050008EF
:10012000AF050008AF050008AF050008AF050008DF
:1001300000F002F800F094F80AA090E8000C824465
:100140008344AAF10107DA4501D100F089F8AFF242
:10015000090EBAE80F0013F0010F18BFFB1A43F0A5
:10016000010318476C7B00008C7B0000103A24BF11
:1001700078C878C1FAD8520724BF30C830C144BF0C
:1001800004680C607047000000230024002500264E
:10019000103A28BF78C1FBD8520728BF30C148BFEA
:1001A0000B6070476E2905F0D483702905F04187F4
:1001B000662907F02D84652907F02A84672907F04E
:1001C00027846129AFF3008003681B0A28BF41F030
:1001D0008001692904F0AC87642904F0A987752996
:1001E00004F0A6876F2905F0CF86782905F00D87E2
:1001F000E92905F06986E42905F06686F52905F008
:100200006386EF2905F0CC86F82905F00C87036892
:10021000DB0928BF41F08001632905F0EA857329D5
:1002200005F0EF85E32906F07F80F32906F084804E
:10023000002070471FB59DE8030005F0E9FA05F0BE
:10024000BDFF04000020002106F0C4FF401C6060D8
:100250000020002106F0A8FFE0601FBD10B510BD12
:1002600006F00EFB1146FFF7E5FF02F019FA06F063
:100270002CFB03B4FFF7F2FF03BC06F099FB000070
:1002800070470EA11C4801F02FFF00BFFEE71BA125
:10029000194801F029FF00BFFEE727A1164801F029
:1002A00023FF00BFFEE733A1134801F01DFF00BF8D
:1002B000FEE7704770477047704770470D0A2A2A5B
:1002C0002A2A2A2A2A2A2A2A2A2A2A2A2A2A2A2A8E
:1002D0002A486172644661756C745F48616E646C33
:1002E00065722A2A2A2A2A2A2A2A2A2A2A2A2A2AEB
:1002F0002A2A2A2A2A0D0A00003801400D0A2A2A31
:100300002A2A2A2A2A2A2A2A2A2A2A2A2A2A2A2A4D
:100310002A4D656D4D616E6167655F48616E646C05
:1003200065722A2A2A2A2A2A2A2A2A2A2A2A2A2AAA
:100330002A2A2A2A2A0D0A000D0A2A2A2A2A2A2AC1
:100340002A2A2A2A2A2A2A2A2A2A2A2A2A42757361
:100350004661756C745F48616E646C65722A2A2A06
:100360002A2A2A2A2A2A2A2A2A2A2A2A2A2A2A2AED
:100370000D0A00000D0A2A2A2A2A2A2A2A2A2A2AAB
:100380002A2A2A2A2A2A2A2A2A5573616765466157
:10039000756C745F48616E646C65722A2A2A2A2A19
:1003A0002A2A2A2A2A2A2A2A2A2A2A2A2A2A0D0AEA
:1003B000000000000CB50020019000906C4800681F
:1003C00040F480306A49086000BF6948006800F462
:1003D000003000900198401C0190009818B90198D5
:1003E000B0F5A06FF1D16248006800F4003010B1A0
:1003F0000120009001E0002000900098012843D1E6
:100400005C48006840F010005A49086008460068DF
:1004100020F0030008600846006840F00200086011
:10042000534840685249486008464068486008465A
:10043000406840F4806048600846406820F47C10C2
:1004400048600846406840F48810486008460068E4
:1004500040F08070086000BF4548006800F0007000
:100460000028F9D04248406820F003004049486025
:100470000846406840F00200486000BF3C484068C1
:1004800000F00C000828F9D10CBD10B5FFF792FF61
:1004900010BD10B53648006840F0010034490860CE
:1004A00008464068344908403149486008460068B9
:1004B000324908402E4908600846006820F4802030
:1004C00008600846406820F4FE0048604FF41F00B2
:1004D0008860FFF7DAFF4FF000602949086010BD1F
:1004E00010B5002100200022214B5B6803F00C01B5
:1004F00021B1042906D0082928D107E0214B224C3C
:10050000236027E01F4B204C236023E0184B5B68DF
:1005100003F47010164B5B6803F48032022303EB84
:10052000904022B9194B4343174C23600DE0104B08
:100530005B6803F4003323B1144B4343124C236034
:1005400003E0104B4343104C236003E00D4B0E4C73
:10055000236000BF00BF064B5B68C3F303130C4C62
:10056000E15C094B1B68CB40074C236010BD0000C9
:1005700000100240002002400000FFF8FFFFF6FEDE
:1005800008ED00E000127A000000002000093D00A4
:10059000040000200948804709480047FEE7FEE7BD
:1005A000FEE7FEE7FEE7FEE7FEE7FEE7FEE7FEE723
:1005B00004480549054A064B7047000093040008AB
:1005C0003101000850030020502700205007002070
:1005D0005007002031490143314A1160704770B51E
:1005E000002100230F22C47804B32D4C246804F4A6
:1005F000E064C4F5E064210AC1F10403CA40447810
:1006000004FA03F18478144021430901254C06784B
:10061000A155047804F01F050124AC4005786D1144
:10062000AD0005F1E025C5F8004109E0047804F0CB
:100630001F050124AC401C4D0678761145F8264074
:1006400070BD1A4A0A400243154B1B1F1A607047BF
:1006500039B1134A121D12680243114B1B1D1A6057
:1006600006E00F4A121D126882430D4B1B1D1A60D3
:100670007047042808D14FF0E021096941F00401D6
:100680004FF0E022116107E04FF0E021096921F00D
:1006900004014FF0E0221161704700000000FA05EC
:1006A0000CED00E000E400E080E100E080FFFF1FCF
:1006B00010B50446CC48844208D10121042000F042
:1006C0002DFB0021042000F029FB46E0C7488442AE
:1006D00008D10121082000F021FB0021082000F0B2
:1006E0001DFB3AE0C248844208D10121102000F0ED
:1006F00015FB0021102000F011FB2EE0BD488442C4
:1007000008D10121202000F009FB0021202000F069
:1007100005FB22E0B848844208D10121402000F0C6
:10072000FDFA0021402000F0F9FA16E0B3488442B7
:1007300008D10121802000F0F1FA0021802000F092
:10074000EDFA0AE0AE48844207D10121801500F09D
:10075000E5FA0021A01500F0E1FA10BD10B5012165
:10076000084600F0DBFA0021012000F0D7FA10BDA6
:100770002DE9F04102460025002600200023002438
:10078000002791F803C00CF00F0591F803C00CF09E
:10079000100CBCF1000F03D091F802C04CEA050523
:1007A00091F800C0BCF1000F31D0146800202BE09C
:1007B0004FF0010C0CFA00F3B1F800C00CEA03068C
:1007C0009E4220D183004FF00F0C0CFA03F7BC437C
:1007D00005FA03FC4CEA040491F803C0BCF1280FAD
:1007E00006D14FF0010C0CFA00FCC2F814C00AE06C
:1007F00091F803C0BCF1480F05D14FF0010C0CFA81
:1008000000FCC2F810C0401C0828D1D31460B1F815
:1008100000C0BCF1FF0F34DD546800202EE000F171
:10082000080C4FF0010808FA0CF3B1F800C00CEA0C
:1008300003069E4221D183004FF00F0C0CFA03F700
:10084000BC4305FA03FC4CEA040491F803C0BCF174
:10085000280F05D100F1080C08FA0CF8C2F8148032
:1008600091F803C0BCF1480F07D100F1080C4FF01C
:10087000010808FA0CF8C2F81080401C0828CED3F2
:100880005460BDE8F0814FF6FF7101800221817054
:100890000421C17070470246002093680B400BB1E1
:1008A000012000E0002070470146886880B2704750
:1008B00002460020D3680B400BB1012000E000206D
:1008C00070470146C86880B2704701617047416156
:1008D00070470AB1016100E041617047C160704733
:1008E0004FF480320A438261816182618269826948
:1008F000704702460020434B18684FF6807318403B
:1009000040EA021008433F4B186070473E49C861F7
:100910007047F0B50A46002300240021002500F0AE
:100920000046B6F1004F02D1364EF16901E0354E76
:100930007168C0F3034583B200F44016B6F5401F5A
:1009400008D121F070612F4E766826F070662D4F29
:100950007E6012E000F48016B6F5801F06D10326F3
:1009600006FA05F4A14341F0706106E0460D360138
:1009700003FA06F6B14341F0706122B1460D36012B
:1009800003FA06F6314300F00046B6F1004F02D1FB
:100990001C4EF16101E01B4E7160F0BD30B50022CC
:1009A0008B071C0F0F2303FA04F2164B08338C102D
:1009B00053F824309343134C08348D1044F82530F9
:1009C00023468C1053F824308C07240F00FA04F4CB
:1009D00023430C4C08348D1044F8253030BD0A49AF
:1009E000DC3108607047000000080140000C014045
:1009F000001001400014014000180140001C01409B
:100A0000002001400000014000002042DF48006853
:100A100040F00100DD49086008464068DC490840B4
:100A2000DA49486008460068DA490840D749086052
:100A30000846006820F4802008600846406820F4DA
:100A4000FE0048604FF41F0088607047CF49096876
:100A500021F48031CD4A11601146096821F48021CA
:100A60001160B0F5803F03D0B0F5802F0ED106E0C5
:100A7000C649096841F48031C44A116007E0C3499E
:100A8000096841F4A021C14A116000E000BF00BF25
:100A9000704710B501460022002300204A11012AA8
:100AA00002D1BA4C236806E0022A02D1B74C236A6D
:100AB00001E0B64C636A01F01F02012494401C401F
:100AC0000CB1012000E0002010BD38B500200090DE
:100AD0000024002500BF3120FFF7DBFF054600980A
:100AE000401C00900098B0F5A06F01D0002DF2D00E
:100AF0003120FFF7CEFF08B1012400E0002420469A
:100B000038BD01460020A14A106820F0F80040EAF4
:100B1000C10010607047A04908607047024600207D
:100B20009A4B586820F47C1042EA01031843974B13
:100B30005860704798490866704701460020934AFC
:100B4000506820F003000843506070478F484068A9
:100B500000F00C007047014600208C4A506820F0DD
:100B6000F00008435060704701460020874A5068F3
:100B700020F4E06008435060704701460020834A3B
:100B8000506820F4605040EAC1005060704729B1BD
:100B90007E4A527A02437D4B5A7204E07B4A527A73
:100BA00082437A4B5A7270477B49D831086070474C
:100BB00001460020754A506820F4404008435060C8
:100BC00070470021714A20321170704A82F820105B
:100BD000012802D004280AD104E001216B4A203206
:100BE000117005E00521694A2032117000E000BF54
:100BF00000BF70476949086070476449096A01434A
:100C0000624A11627047654944390860704730B5DF
:100C100000210022002400235C4D6D6805F00C01CA
:100C200021B1042905D0082923D105E05C4D0560D8
:100C300022E05B4D05601FE0544D6D6805F47012B5
:100C4000524D6D6805F48034022505EB92421CB9C3
:100C5000544D554305600BE04C4D6D6805F400356F
:100C60001DB1504D5543056002E04D4D55430560A3
:100C700002E04B4D056000BF00BF444D6D6805F0BC
:100C8000F0010909484D6B5C0568DD4045603F4D4A
:100C90006D6805F4E061090A434D6B5C4568DD4011
:100CA00085603A4D6D6805F46051C90A3E4D6B5C34
:100CB0004568DD40C560354D6D6805F44041890BE0
:100CC0003A4D6B5CC568B5FBF3F5056130BD29B1E4
:100CD0002E4A526902432D4B5A6104E02B4A526955
:100CE00082432A4B5A61704729B1284A92690243CC
:100CF000264B9A6104E0254A92698243234B9A610C
:100D0000704729B1214AD2690243204BDA6104E0DD
:100D10001E4AD26982431D4BDA61704729B11B4AD2
:100D2000D2680243194BDA6004E0184AD268824361
:100D3000164BDA60704729B1144A12690243134B0B
:100D40001A6104E0114A12698243104B1A6170471C
:100D500012494039086070470F49C86470470B4911
:100D6000C87170470948406A40F08070074948627E
:100D7000704701460020054A92680A400AB10120E6
:100D800000E000207047014988727047001002405F
:100D90000000FFF8FFFFF6FE0000424280044242DE
:100DA00000127A0000093D001400002024000020F9
:100DB00010B50446FB48844209D101218803FFF79E
:100DC000ADFF00214FF48040FFF7A8FF32E0F64866
:100DD000844209D101214804FFF7ADFF00214FF4FF
:100DE0000030FFF7A8FF25E0F048844209D1012137
:100DF0008804FFF7A0FF00214FF48020FFF79BFF3E
:100E000018E0EB48844209D10121C804FFF793FFA1
:100E100000214FF40020FFF78EFF0BE0E5488442ED
:100E200008D101210805FFF786FF00214FF480104B
:100E3000FFF781FF10BD2DE9F04786B005460E464D
:100E40000024A24600BFA1460027B08900B100BF20
:100E50002F462C8A4CF6FF700440F08804432C8205
:100E6000AC894EF6F3100440B0883189084371898B
:100E700008430443AC81AC8A4FF6FF400440B0897C
:100E80000443AC8201A8FFF7C2FEC648874202D1E4
:100E9000DDF810A001E0DDF80CA0A88900F4004006
:100EA00040B10AEBCA0000EB0A1031684900B0FB00
:100EB000F1F807E00AEBCA0000EB0A10316889007C
:100EC000B0FBF1F86420B8FBF0F0040120096421C4
:100ED00001FB1089A88900F4004040B1322000EBEA
:100EE000C900B0FBF1F000F00700044308E0322035
:100EF00000EB09106421B0FBF1F000F00F00044397
:100F00002C8106B0BDE8F0874FF416510160002136
:100F10008180C18001810C21418100218181704744
:100F200010B502460020108A4FF2FF0318400B88CC
:100F30004C8823438C882343CC8823431843108256
:100F400010BD0021018041808180C180704721B1A6
:100F5000828942F40052828104E082894DF6FF7357
:100F60001A4082817047F0B5034600240026002510
:100F7000002040F66A17B94200D100BF1846C1F3FD
:100F8000421401F01F06012707FA06F5012C01D1D2
:100F90000C3004E0022C01D1103000E014301AB102
:100FA00007682F43076002E00768AF430760F0BDA2
:100FB0001AB1838A0B43838202E0838A8B43838244
:100FC0007047028A4FF6F0731A400282028A0A437F
:100FD0000282704782894FF2FF731A4082818289B0
:100FE0000A438281704721B1828942F002028281E4
:100FF00004E082894FF6FD731A4082817047028AAD
:101000004FF6DF731A400282028A0A430282704757
:1010100021B1028A42F48042028204E0028A4BF645
:10102000FF731A4002827047C1F308028280704742
:1010300001468888C0F308007047818941F00101AA
:1010400081817047028BD2B20283028B42EA012275
:1010500002837047028B02F47F420283028B0A43B1
:101060000283704721B1828A42F02002828204E02A
:10107000828A4FF6DF731A408282704721B1828ADA
:1010800042F01002828204E0828A4FF6EF731A4027
:101090008282704721B1828A42F00802828204E093
:1010A000828A4FF6F7731A408282704721B1828993
:1010B00042F40042828103E08289C2F30E028281FF
:1010C000704721B1828A42F40062828204E0828AFF
:1010D0004FF2FF731A4082827047828A4FF6FB7389
:1010E0001A408282828A0A438282704721B1828AB0
:1010F00042F00202828204E0828A4FF6FD731A40B7
:101100008282704702460020B1F5007F00D100BF07
:1011100013880B400BB1012000E00020704701F460
:101120000072B2F5007F00D100BFCA430280704751
:1011300070B50246002400230025002040F66A1600
:10114000B14200D100BFC1F3421501F01F030126D7
:1011500006FA03F3012D02D19689334006E0022DF1
:1011600002D1168A334001E0968A33400C120126E0
:1011700006FA04F41688344013B10CB1012000E0E3
:10118000002070BD10B50022002340F66A14A14271
:1011900000D100BF0A1201249440A3B2DC430480B2
:1011A00010BD0000003801400044004000480040ED
:1011B000004C00400050004001460020FE4A1068EC
:1011C00000F03800084310607047FB49096821F0BF
:1011D0000801F94A1160114609680143116070471E
:1011E000F549096821F01001F34A116011460968B8
:1011F000014311607047F148EF494860F04848608A
:101200007047EE48EC494860ED4848607047EA484E
:10121000006940F08000E84908617047E6480069CD
:1012200040F08000E449086170470420E249C96841
:1012300001F0010109B101200EE0DF49C96801F0A8
:10124000040109B1022007E0DB49C96801F010017F
:1012500009B1032000E00420704700B502460423D2
:10126000FFF7E3FF034603E0FFF7DFFF0346521EED
:10127000012B01D1002AF7D102B90523184600BD80
:1012800030B5044604254FF43020FFF7E6FF05464D
:10129000042D17D1C848006940F00200C649086112
:1012A00008464461006940F0400008614FF4302076
:1012B000FFF7D3FF0546C048006941F6FD710840BD
:1012C000BD490861284630BD10B504244FF43020D4
:1012D000FFF7C3FF0446042C16D1B748006940F05D
:1012E0000400B54908610846006940F04000086103
:1012F0004FF43020FFF7B1FF0446AF48006941F6D4
:10130000FB710840AC490861204610BD00B502469B
:101310000423FFF78AFF034603E0FFF786FF034637
:10132000521E012B01D1002AF7D102B9052318461C
:1013300000BD10B504244FF43020FFF7E7FF04464A
:10134000042C16D19C48006940F004009A490861B9
:101350000846006940F0400008614FF43020FFF774
:10136000D5FF04469448006941F6FB710840924954
:101370000861204610BD00208F49C96901F00201B3
:1013800009B1012000E00020704730B5A5250424F4
:10139000FFF7F1FF00B100254FF43020FFF75DFFAC
:1013A0000446042C3AD18548834988608448886083
:1013B0000846006940F0200008610846006940F0D6
:1013C000400008614FF43020FFF747FF0446042C2B
:1013D0001BD17948006941F6DF7108407649086100
:1013E0000846006940F01000086176480580E00278
:1013F000FFF733FF0446052C10D06F48006941F613
:10140000EF7108406C49086108E0052C06D06A4875
:10141000006941F6EF71084067490861204630BD18
:1014200078B506460C46042500200090E802FFF738
:1014300014FF0546042D24D15F48006940F00100E7
:101440005D4908613480E802FFF707FF0546042D77
:1014500010D1B01C0090200C00990880E802FFF722
:10146000FCFE05465448006941F6FE7108405249A9
:10147000086106E05048006941F6FE7108404E4997
:101480000861284678BD70B504460D460426F00272
:10149000FFF7E3FE0646042E11D14748006940F0ED
:1014A0000100454908612580F002FFF7D6FE064697
:1014B0004148006941F6FE7108403F4908613046E5
:1014C00070BD70B505460E460424E002FFF7C5FE68
:1014D0000446042C17D13948374988603848886059
:1014E0000846006940F0100008612E80E002FFF716
:1014F000B4FE0446052C06D02F48006941F6EF7172
:1015000008402D490861204670BD2DE9F04304468E
:101510004FF6FF763746B046B1460425E443E6B2BF
:10152000C4F30727C4F307484FEA1469E802FFF73A
:1015300094FE0546042D49D120481F498860204863
:1015400088600846006940F010000861FF2E06D050
:101550001C4808300680E802FFF77FFE0546042D90
:1015600008D1FF2F06D017480A300780E802FFF79E
:1015700074FE0546042D0AD1B8F1FF0F07D01148BB
:101580000C30A0F80080E802FFF767FE0546042D46
:101590000AD1B9F1FF0F07D00A480E30A0F8009029
:1015A000E802FFF75AFE0546052D0FD002480069F4
:1015B00041F6EF71084007E0002002402301674533
:1015C000AB89EFCD00F8FF1F664908612846BDE8EA
:1015D000F08330B5054604244FF43020FFF73DFE7C
:1015E0000446042C41D160485E4988605F488860A9
:1015F0000846006940F0200008610846006940F094
:10160000400008614FF43020FFF727FE0446042C09
:1016100022D15448006941F6DF7108405149086100
:101620000846006940F0100008611DB100205049D3
:10163000088002E0A5204E4908804FF43020FFF7D3
:101640000CFE0446052C10D04648006941F6EF71A7
:1016500008404449086108E0052C06D0414800696B
:1016600041F6DF7108403F490861204630BDF0B5C2
:1016700005460E46174604243B483A4988603B48D5
:101680008860E002FFF7E9FD0446042C19D13548D3
:10169000006940F010003349086147F0F80030431A
:1016A00028433349891C0880E002FFF7D6FD044631
:1016B000052C06D02B48006941F6EF7108402949F6
:1016C00008612046F0BD2748C0698008704725485A
:1016D000006A704700202349096801F0200109B120
:1016E000012000E00020704729B11E4A1269024320
:1016F0001C4B1A6104E01B4A12698243194B1A61A0
:10170000704701460020012908D1164AD26902F02B
:1017100001020AB1012008E0002006E0114AD26867
:101720000A400AB1012000E0002070470D49C8605E
:10173000704704200B49C96801F0010109B101207B
:101740000EE00849C96801F0040109B1022007E070
:101750000449C96801F0100109B1032000E0042028
:10176000704700000020024023016745AB89EFCDA0
:1017700000F8FF1F10B50446FA48844208D1012141
:101780004015FFF7CBFA00216015FFF7C7FA17E005
:10179000F548844208D101210015FFF7BFFA002166
:1017A0002015FFF7BBFA0BE0F048844208D1012175
:1017B000C803FFF7B3FA00214FF40040FFF7AEFA79
:1017C00010BD30B50246002000235068E84C204090
:1017D0000D790C6844EA0524204350609068E54C7C
:1017E0002040D1E902542C434D7944EA450420437A
:1017F0009060D06A20F470000C7C641EE4B2234335
:1018000040EA0350D06230BD002101600171417196
:101810008160C16001210174704721B1826842F08A
:101820000102826003E0826822F001028260704758
:1018300021B1826842F48072826003E0826822F4FF
:1018400080728260704710B50023CBB21AB1446831
:101850001C43446002E044689C43446010BD8168BE
:1018600041F0080181607047014600208A6802F05B
:1018700008020AB1012000E000207047816841F0B1
:10188000040181607047014600208A6802F004026A
:101890000AB1012000E00020704721B1826842F4C3
:1018A000A002826003E0826822F4A0028260704796
:1018B000014600208A6802F480020AB1012000E09B
:1018C0000020704710B50A4600210023416821F42A
:1018D0006041531E41EA4331416010BD21B142686D
:1018E00042F40062426003E0426822F40062426017
:1018F0007047F0B504460D4600200021092D11DD8A
:10190000E068A5F10A0606EB4607072606FA07F186
:101910008843A5F10A0606EB460603FA06F10843DA
:10192000E0600CE0206905EB4507072606FA07F1A1
:10193000884305EB450603FA06F108432061072AB0
:101940000FDA606B561E06EB86071F2606FA07F1B4
:101950008843561E06EB860605FA06F108436063C7
:1019600022E00D2A0FDA206BD61F06EB86071F2612
:1019700006FA07F18843D61F06EB860605FA06F13C
:101980000843206310E0E06AA2F10D0606EB86072B
:101990001F2606FA07F18843A2F10D0606EB86061C
:1019A00005FA06F10843E062F0BD21B1826842F415
:1019B0008012826003E0826822F4801282607047A5
:1019C0000146C86C80B2704766484C30006870476A
:1019D00021B1426842F48062426003E0426822F42E
:1019E00080624260704721B1426842F48052426096
:1019F00003E0426822F48052426070470A460021A8
:101A0000816821F4E04111438160704721B182680F
:101A100042F40042826003E0826822F40042826065
:101A2000704721B1826842F40212826003E082684A
:101A300022F4021282607047014600208A6802F494
:101A400000120AB1012000E000207047F0B5044602
:101A50001546002000220026092911DDE068A1F1C9
:101A60000A0707EB470C072707FA0CF29043A1F18E
:101A70000A0707EB470703FA07F21043E0600CE0A0
:101A8000206901EB410C072707FA0CF2904301EBA8
:101A9000410703FA07F210432061A06BC0F301561F
:101AA000EF1C06F1010CA7EB0C0707EB870C1F27B7
:101AB00007FA0CF29043EF1C06F1010CA7EB0C07A0
:101AC00007EB870701FA07F21043A063F0BD10B5DA
:101AD0000A4600210023816B21F44011531E41EA84
:101AE0000351816310BD08B5002300930090009B53
:101AF0000B440093009B1A6008BD08B50246002005
:101B00000090009201F12800009B1844009000987A
:101B1000006880B208BD0A4600214168164B194092
:101B20001143416070474162826270470A4600215A
:101B3000416821F01F0111434160704740B10949DC
:101B40000831096841F40001064A0832116007E0D3
:101B500004490831096821F40001024A0832116081
:101B6000704700000024014000280140003C014073
:101B7000FFFEF0FFFDF7F1FFFFFD3FFF02460020F3
:101B800013680B400BB1012000E000207047CA43EE
:101B90000260704770B502460020002300240B123B
:101BA0005568CEB205EA060415681D4015B10CB1A2
:101BB000012000E0002070BD00220A12D343036020
:101BC0007047000001684FF6FE721140016000216D
:101BD000016041608160C1608D49884208D18C49B3
:101BE0000839496841F00F01894A083A51608AE092
:101BF00087491431884208D185490839496841F03C
:101C0000F001834A083A51607DE0814928318842D9
:101C100008D17F490839496841F470617C4A083A23
:101C2000516070E07A493C31884208D178490839DE
:101C3000496841F47041764A083A516063E074495A
:101C40005031884208D172490839496841F47021FD
:101C50006F4A083A516056E06D496431884208D1B4
:101C60006B490839496841F47001694A083A516082
:101C700049E067497831884208D16549083949689F
:101C800041F07061624A083A51603CE06149884223
:101C900006D1011F096841F00F01021F116032E0F7
:101CA0005C491431884208D15A49091F096841F03A
:101CB000F001584A121F116025E056492831884228
:101CC00008D15449091F096841F47061514A121F33
:101CD000116018E04F493C31884208D14D49091F35
:101CE000096841F470414B4A121F11600BE04949E9
:101CF0005031884207D14749091F096841F47021D2
:101D0000444A121F1160704710B50022026847F65E
:101D1000F0739A430C6A8B6823430C6923434C6924
:101D200023438C692343CC6923434C6A23438C6A45
:101D300023431A430260CB6843600B6883604B689F
:101D4000C36010BD0021016041608160C16001611C
:101D500041618161C161016241628162704721B16B
:101D6000026842F00102026004E002684FF6FE736E
:101D70001A40026070471AB103680B43036002E027
:101D800003688B43036070474160704701464868B1
:101D900080B2704701460020002201F080531BB141
:101DA0001C4B083B1A6802E0194B083B1A6802EA10
:101DB00001030BB1012000E00020704700F08051CA
:101DC00019B11449091F086002E011490839486037
:101DD000704701460020002201F080531BB10D4BDB
:101DE000083B1A6802E00A4B083B1A6802EA010342
:101DF0000BB1012000E00020704700F0805119B1C4
:101E00000449091F086002E0014908394860704729
:101E100008000240080402404FF0E020006920F072
:101E200004004FF0E0210861092036490870084697
:101E3000007800EB4001C1EBC0104FF6FF7101EAE2
:101E4000C000314908807047002120F07F402D4AB2
:101E5000127842434FF0E0235A6100229A61012236
:101E60001A6100BF4FF0E022116901F001021AB1BE
:101E700001F48032002AF5D000224FF0E0231A61ED
:101E80009A617047002100B9704720F07F401E4AD8
:101E9000128842434FF0E0235A6100229A610122E6
:101EA0001A6100BF4FF0E022116901F001021AB17E
:101EB00001F48032002AF5D000224FF0E0231A61AD
:101EC0009A6100BFE0E770B50446002600254FF494
:101ED000FA7094FBF0F0C6B24FF4FA7094FBF0F194
:101EE00000FB114085B205E04FF4FA70FFF7CAFF1E
:101EF000701EC6B2002EF7D115B12846FFF7C2FFFB
:101F000070BD0000280000202A00002010B5044603
:101F1000012C05D10122C1032548FEF7DAFC05E0BA
:101F200000224FF400412248FEF7D3FC10BD10B54B
:101F30000446012C05D1012281031D48FEF7C9FC8E
:101F400005E000224FF480411948FEF7C2FC10BDA5
:101F500010B50446012C05D1012241031448FEF7B7
:101F6000B8FC05E000224FF400511148FEF7B1FC27
:101F700010BD10B50446012C05D1012201030C4807
:101F8000FEF7A7FC05E000224FF480510848FEF759
:101F9000A0FC10BD10B50020FFF7EBFF0020FFF7FD
:101FA000D7FF0020FFF7C3FF0020FFF7AFFF10BDF2
:101FB000000C014010B586B0044602940020ADF834
:101FC00014000C20ADF812000020ADF81000ADF8A0
:101FD0000E00ADF80C0002A95B48FEF72CFF0121B2
:101FE0005948FEF7B4FF012240F225515648FEF74A
:101FF000BAFF25208DF8040001208DF8070000208D
:102000008DF8050002208DF8060001A8FEF7E7FA1A
:1020100006B010BD10B586B0044601210420FEF7BD
:1020200063FE01214804FEF76CFE18208DF81700AE
:102030000420ADF8140003208DF8160005A94348CC
:10204000FEF796FB04208DF817000820ADF8140069
:1020500003208DF8160005A93C48FEF789FB019482
:102060000020ADF810000C20ADF80E000020ADF8F7
:102070000C00ADF80A00ADF8080001A93448FEF7DD
:10208000DAFE01213248FEF762FF012240F22551BB
:102090002F48FEF768FF26208DF8000001208DF8FC
:1020A000030000208DF801008DF802006846FEF75D
:1020B00096FA06B010BD2DE9F04107460C461546CC
:1020C00000260DE014F8011B3846FEF7ADFF00BFF7
:1020D00040213846FFF716F80028F9D0701C86B268
:1020E000AE42EFDBBDE8F0810FB430B5CBB00546B2
:1020F00001AC50A800904FF4947101A8009B4F9A36
:1021000002F07AFF002000900BE014F8011B284633
:10211000FEF78AFF00BF40212846FEF7F3FF0028A4
:10212000F9D020780028F0D14BB030BC5DF814FB1A
:1021300010B540F225510448FEF7FAFF18B12021EE
:102140000148FEF7ECFF10BD0038014000080140D7
:102150000044004010B50446012C05D10122410382
:102160001B48FEF7B6FB05E000224FF4005118486B
:10217000FEF7AFFB10BD10B50446012C05D10122BE
:1021800081031348FEF7A5FB05E000224FF48041D0
:102190000F48FEF79EFB10BD10B50446012C05D17B
:1021A0000122C1030A48FEF794FB05E000224FF428
:1021B00000410748FEF78DFB10BD10B50020FFF76A
:1021C000EBFF0020FFF7D7FF0020FFF7C3FF10BD94
:1021D0000010014008B54FF48050ADF80000102009
:1021E0008DF8030003208DF8020069466148FEF770
:1021F000BFFA08BD08B54FF48050ADF800001420B8
:102200008DF8030069465B48FEF7B2FA08BD10B5C9
:10221000FFF7E0FF4FF480515648FEF758FB1420BB
:10222000FFF730FE4FF480515248FEF74EFB1E2060
:10223000FFF70AFE10BD10B50024FFF7DBFF04E036
:10224000601CC4B20120FFF7FFFD4FF480514948E4
:10225000FEF721FB012801D1642CF1DB642C01DBAA
:10226000012010BD002404E0601CC4B20120FFF76F
:10227000EBFD4FF480513F48FEF70DFB08B9642C8D
:10228000F2DB642C01DB0120EBE70020E9E710B56D
:1022900001210420FEF728FDFFF7B9FFFFF7CBFF70
:1022A00010BD10B5002404E0601CC4B20120FFF78B
:1022B000CBFD4FF480512F48FEF7EDFA012801D1F4
:1022C000642CF1DB002404E0601CC4B20120FFF7A1
:1022D000BBFD4FF480512748FEF7DDFA08B9642CA6
:1022E000F2DB2820FFF7B0FD4FF480512148FEF7C4
:1022F000D2FA012800D110BD0020FCE770B50024FF
:10230000002506E06006040EFFF7CBFF0443681CBF
:10231000C5B2082DF6DB204670BD7CB505460E46DD
:10232000FFF775FFFFF787FFF8B9002405E0FFF717
:10233000E5FF0DF80400601CC4B2052CF7DB9DF826
:1023400000009DF8011008449DF8021008449DF813
:10235000031008449DF80410884208D19DF800003D
:1023600030709DF80200287001E001207CBD002043
:10237000FCE700000008014010B5FE48FFF722FC12
:10238000FD48FE490860FE4848600020886004203F
:10239000C86000200861802048614000886180009A
:1023A000C861202008620002486200208862F1486B
:1023B000FFF7AAFC0121EF48FFF7D1FC012202211F
:1023C000EC48FFF7D8FC0020EE49086001200871B6
:1023D00048714FF4602088600020C86004200874B1
:1023E000E5484C38FFF7EDF90120FFF7A7FB07237D
:1023F00001220021E0484C38FFF77BFA0723022234
:102400001021DD484C38FFF774FA0723032201211D
:10241000D9484C38FFF76DFA0121D7484C38FFF7FF
:1024200007FA0121D4484C38FFF7F7F9D2484C3865
:10243000FFF715FA00BFD0484C38FFF715FA00280F
:10244000F9D1CD484C38FFF719FA00BFCA484C38CB
:10245000FFF719FA0028F9D10121C7484C38FFF7D6
:102460001CFA10BD10B501210420FEF752FA4020DD
:10247000C5490880032088701820C870C348FEF73B
:1024800077F98020C04908800420C870BF48FEF753
:102490006FF90420BC490880032088701820C87098
:1024A000BB48FEF765F90820B74908800420C870CA
:1024B000B748FEF75DF94FF48050B3490880032018
:1024C00088701020C870B148FEF752F94FF40050E0
:1024D000AD490880032088701020C870AB48FEF713
:1024E00047F94FF48040A8490880032088701020E5
:1024F000C870A648FEF73CF94FF40040A249088096
:10250000032088701020C870A048FEF731F94FF4FE
:1025100000709D490880032088702820C8709D485D
:10252000FEF726F94FF480709749088003208870E1
:102530001020C8709748FEF71BF94FF4806092494D
:102540000880032088701020C8709248FEF710F9A8
:102550004FF480508C490880032088701020C87088
:102560008C48FEF705F90120874908800020C870D3
:102570008748FEF7FDF81020834908800020C870C6
:102580008448FEF7F5F810207F49C87000010880E4
:10259000032088707D48FEF7EBF810207A49C87058
:1025A00040020880032088707A48FEF7E1F8102086
:1025B0007549C87080020880032088707548FEF74E
:1025C000D7F810207049C870C002088003208870B6
:1025D0007048FEF7CDF810BD10B5FEF717FA4FF4AE
:1025E0008030FEF733FAFEF770FA0446012C25D14D
:1025F0001020FEF7F5FD0220FEF7DEFD4FF4E0119E
:102600002004FEF78BFA0120FEF794FA00BF392070
:10261000FEF73FFA0028FAD00220FEF78EFA00BF3C
:10262000FEF794FA0828FBD10020FEF794FA4FF445
:102630008060FEF799FA0020FEF79FFA0121084614
:10264000FEF745FB012144F29C20FEF74DFB0121E2
:102650004804FEF756FB01210846FEF745FB10BD76
:1026600010B5FFF7B9FFFFF7FDFEFFF785FE4FF44A
:10267000A060FDF7AFFFFFF7CFFB4FF4E130FFF7AE
:1026800099FC4FF4E130FFF7C5FCFFF783FCFFF73F
:1026900094FDFFF7FCFD40A14448FFF725FD10BD68
:1026A00086B00024A146FFF7DBFF02F06FFB40A1DC
:1026B0003E48FFF719FD03E04FF4FA70FFF7E2FB25
:1026C00042A144A002F003FB0028F5D103E04FF43F
:1026D000FA70FFF7D7FB00F0E4FA0028F7D148A220
:1026E0004BA14DA000F0EBFD0120FFF755FD0120AF
:1026F000FFF741FD2FE1601C80B20446B0F5FA7F80
:1027000036DB04A905A8FFF708FE9DF8150004F0C4
:1027100077FF82460022454B04F01AFE05460E461E
:102720009DF8140004F06CFF07462A46334604F077
:1027300067FD3F4A03C29DF8110004F061FF0546A2
:1027400000223A4B04F004FE074688469DF810002C
:1027500004F056FF82463A46434604F051FD354A9E
:1027600003C20749088804F04BFF0746002263E0D4
:10277000D6E00000080002404C2401407000002018
:10278000340000209C00002030000020000C01409C
:1027900000080140001001402048617264776172B6
:1027A0006520696E6974204F4B0D0A0000380140A6
:1027B000436F6E6E656374204D515454732053659E
:1027C000727665722E2E2E0D0A000000434F4E4E7B
:1027D0004543540041542B43495053544152543DB6
:1027E00022544350222C223138332E3233302E34AF
:1027F000302E3936222C313838330D0A00000000D3
:102800006D795F66697273745F646576696365008C
:102810003437303238350000247379732F25732F05
:1028200025732F636D642F230000000000002440F7
:102830005800002060000020474B04F089FD054649
:10284000464A474B04F0FAFF464A03C24649888885
:1028500004F0D6FE074600223F4B04F079FD054602
:102860003E4A3F4B04F0EAFF404A03C23E494888D3
:1028700004F0C6FE05464FF066323D4B04F0D4FE30
:1028800000223C4BCDE9000104F062FD07463A4AC4
:102890003A4B04F0C7FF8246394A3A4B04F058FDE0
:1028A0000022394BCDE9020104F0AAFC374A03C2E9
:1028B0004FF480513648FDF7EEFF08B1012000E0EB
:1028C0000020344908704FF400513148FDF7E3FF10
:1028D00008B1012000E000202E4948704FF48041EB
:1028E0002B48FDF7D8FF08B1012000E0002029495E
:1028F00088704FF400412648FDF7CDFF08B1012054
:1029000000E000202349C87023A12848FFF7ECFB12
:1029100000F067FC0A20FFF7B5FA002402F0B8F9CE
:10292000204604EBD0714910A4EB410119B90120F4
:10293000FFF710FC02E00020FFF70CFC002002F083
:1029400003FA8146B9F1000F02D0484600F0F7FCC7
:102950000A20FFF797FACEE60000B0407B14AE479E
:10296000E17A843F4000002034000020480000202D
:1029700066660A4000FEAF40E17A14AE47E1F63FDA
:1029800022FDF675E09C713F0000394050000020A8
:10299000000C01402C0000204F6E654E65745F53A3
:1029A000656E64446174610D0A00000000380140E6
:1029B000F0B58BB0054600260024284602F04BFEF9
:1029C000C7B20DB11C2F02DA01200BB0F0BD06E03A
:1029D000A85D01A988550020A855701CC6B2BE424A
:1029E000F6DB002001A988550026002455E001A847
:1029F000805D2B2810D008DC202814D023282ED06E
:102A0000252825D026283FD130E02F2812D03D2878
:102A100033D03F2838D114E02819FCA102F03AFE47
:102A2000E01CC4B236E02819F9A102F033FEE01C24
:102A3000C4B22FE02819F7A102F02CFEE01CC4B2AA
:102A400028E02819F4A102F025FEE01CC4B221E020
:102A50002819F2A102F01EFEE01CC4B21AE02819E7
:102A6000EFA102F017FEE01CC4B213E02819EDA19B
:102A700002F010FEE01CC4B20CE02819EAA102F03A
:102A800009FEE01CC4B205E001A8805D2855601C69
:102A9000C4B200BF00BF701CC6B2BE42A7DB00209C
:102AA000285500BF91E72DE9F04FC9B005460C4607
:102AB00016461F460DF5A47898E8000F00204890B0
:102AC00055B14CB1D948864206D32FB1B9F1000FA8
:102AD00002D0BAF1780F03DA012049B0BDE8F08FD7
:102AE000402118A802F049FE384602F0B4FD0590D6
:102AF0003B4648AA4021009018A801F009F9482156
:102B000006A802F03AFEBBF1000F09D0C8A0334678
:102B1000C9A248218DE8310006A802F09DFA09E01B
:102B2000C3A03346CAA248218DE81101039506A827
:102B300002F092FA402128A802F01FFE06A802F037
:102B40008AFD059018A802F086FD049028A8009040
:102B500006AA18A8DDE9041300F086FF00204890BB
:102B6000402138A802F009FE28A802F074FD059063
:102B700028AB48AA4021009038A801F029F838A8CD
:102B8000FFF716FFBBF1000F0CD038A8A8A12B4609
:102B9000B7A2CDE90046CDE902105146484602F001
:102BA0005BFA0CE038A8A2A12B46BF4ACDE901860A
:102BB0000094CDE903105146484602F04DFA00203A
:102BC0008BE72DE9F041ACB001271A26002400253F
:102BD00006F1F00002F0BAF904461CB938462CB0F0
:102BE000BDE8F08103E04FF4FA70FFF74BF9AFA1B5
:102BF000B0A002F06CF80028F5D10120902108AABD
:102C00000023CDE90032CDE90210B4A3BF4AC0A130
:102C1000C1A0FFF748FFC3A11A20CDE9000106F1CA
:102C2000F00108ABC34A204602F016FA2146C2481A
:102C3000FFF75AFA204602F00EFD1FFA80F84146CF
:102C4000204602F06AF8FA2002F07EF8054625B127
:102C5000BAA1284602F0C9FC0546CDB10020039078
:102C6000B94803A904ABB94ACDE90010B8492846D0
:102C700002F05EFB04280AD1B348039904ABB34ABF
:102C8000CDE90010B3A1AC48FFF72EFA002700BF32
:102C9000204602F08AF9B7A1B7A002F018F838462A
:102CA0009DE730B5B3B000202F9030903190329036
:102CB0000125A02107AA9BA3CDE90032CDE902108E
:102CC00086A3B14A92A194A0FFF7EDFE07A890A3B6
:102CD00094A2AEA100909848FFF706FA2FA8002111
:102CE00002910391CDE90410084601210B028DA247
:102CF000CDE9001007A986A001F06BF9002842D1A8
:102D0000309A91B22F9802F008F8FA2002F01CF8DD
:102D10000446002C33D0204601F026F902282ED19B
:102D2000204601F0BBFA062823D2DFE800F00309B1
:102D30000E13181DA1A18048FFF7D6F900251DE04C
:102D4000A3A17D48FFF7D0F918E0A8A17A48FFF7C2
:102D5000CBF913E0AEA17848FFF7C6F90EE0B4A1B5
:102D60007548FFF7C1F909E0BAA17348FFF7BCF94C
:102D700004E0C3A17048FFF7B7F900BF00BF2FA858
:102D800001F0AAF803E0C5A16B48FFF7ADF92846AA
:102D900033B030BD10B588B004462021684602F03B
:102DA000ECFCC7A1204602F032FC2021684602F06C
:102DB000E4FCC848C8A10CC8684602F037F9694667
:102DC000204602F067FC2021684602F0D6FCC84885
:102DD000C8A10CC8684602F029F96946204602F0ED
:102DE00059FC2021684602F0C8FCC848C8A10CC89C
:102DF000684602F01BF96946204602F04BFC202190
:102E0000684602F0BAFCC94892E10000253242004F
:102E10002532300025324600253346002532350064
:102E20002532330025323600253344009554415D68
:102E3000736861310000000025640A25730A70720E
:102E40006F64756374732F25730A25730000000087
:102E500025640A25730A70726F64756374732F2575
:102E6000732F646576696365732F25730A25730074
:102E700076657273696F6E3D2573267265733D705A
:102E8000726F6475637473252532462573266574E5
:102E90003D2564266D6574686F643D2573267369EE
:102EA000676E3D2573000000F87B0008434F4E4ECF
:102EB0004543540041542B43495053544152543DCF
:102EC00022544350222C223138332E3233302E34C8
:102ED000302E3333222C38300D0A0000546D5A3511
:102EE0006373434A6A7147532F5131516157777465
:102EF000593063422B6D57593342455A517A314DFF
:102F00006C35324E6975513D0000000000B0937A77
:102F10003437303238350000323031382D31302DF1
:102F2000333100006D795F66697273745F64657632
:102F300069636500407C000800380140646576697B
:102F400063655F6964000000C0000020B0000020DD
:102F5000AC7B0008637265617465206465766963A3
:102F6000653A2025732C2025732C2025642C2025E0
:102F7000730D0A004F4B000041542B434950434C02
:102F80004F53450D0A00000000CF9D744F6E654EF3
:102F900045545F4465764C696E6B0D0A4E414D4554
:102FA0003A2025732C0950524F49443A2025732C5E
:102FB000094B45593A25730D0A0000005469707396
:102FC0003A09C1ACBDD3B3C9B9A60D0A00000000CF
:102FD0005741524E3A09C1ACBDD3CAA7B0DCA3BA1F
:102FE000D0ADD2E9B4EDCEF30D0A00005741524EF8
:102FF0003A09C1ACBDD3CAA7B0DCA3BAB7C7B7A85A
:10300000B5C4636C69656E7469640D0A00000000E4
:103010005741524E3A09C1ACBDD3CAA7B0DCA3BADE
:10302000B7FECEF1C6F7CAA7B0DC0D0A000000005B
:103030005741524E3A09C1ACBDD3CAA7B0DCA3BABE
:10304000D3C3BBA7C3FBBBF2C3DCC2EBB4EDCEF36F
:103050000D0A00005741524E3A09C1ACBDD3CAA770
:10306000B0DCA3BAB7C7B7A8C1B4BDD328B1C8C82C
:10307000E7746F6B656EB7C7B7A8290D0A0000002B
:103080004552523A09C1ACBDD3CAA7B0DCA3BACEEF
:10309000B4D6AAB4EDCEF30D0A0000005741524E4B
:1030A0003A094D5154545F5061636B6574436F6EC0
:1030B0006E656374204661696C65640D0A000000EA
:1030C0007B226964223A3132332C226470223A7BAB
:1030D0000000000058000020224448545F74656DD1
:1030E00070223A5B7B2276223A2533667D5D2C0086
:1030F00060000020224448545F68756D69223A5B85
:103100007B2276223A2533667D5D2C00500000201C
:103110002274656D7065726174727565223A5B7BAD
:103120002276223A2533667D5D2C00004000002087
:10313000FDA10CC8684601F079FF6946204602F0FF
:10314000A9FA2021684602F018FBFC48FCA10CC833
:10315000684601F06BFF6946204602F09BFA202189
:10316000684602F00AFBFB480278FBA1684601F0C2
:103170005DFF6946204602F08DFA2021684602F084
:10318000FCFAF4484278FAA1684601F04FFF69461C
:10319000204602F07FFA2021684602F0EEFAED4860
:1031A0008278F9A1684601F041FF6946204602F0A5
:1031B00071FA2021684602F0E0FAE648C278F8A1E8
:1031C000684601F033FF6946204602F063FAF9A130
:1031D000204602F05FFA204602F03DFAC0B208B085
:1031E00010BD30B5C5B0002041904290439044904E
:1031F00000240025F0A1F848FEF776FF4FF4807117
:1032000001A802F0BAFA01A8FFF7C4FD0446002C99
:1032100028D041A800232246AFF2F8210090AFF257
:10322000103001F02CF9C8B908E001A8415D429ABC
:10323000501C429041988154681C05B2A542F4DBB1
:10324000429A91B2419801F068FDE4A1E248429AA5
:10325000FEF74AFF41A800F03FFE03E0E3A1DE488D
:10326000FEF742FF45B030BD70B588B005460C464C
:103270000020049005900690079023462A46E3A17B
:10328000D548FEF731FF204602F0E5F9064604A8CE
:103290000121002200923346CDE90121039022460C
:1032A00029460A2001F009F838B9059A91B2049824
:1032B00001F033FD04A800F00FFE08B070BD0FB49C
:1032C00000B595B00020119012901390149003A8AF
:1032D000029017A80190382103A8019B169A01F0CB
:1032E0008BFE0020019003AAD0A1BB48FEF7FCFE94
:1032F00011A8012302AA00210090142001F0C9F9AD
:1033000038B9129A91B2119801F007FD11A800F096
:10331000E3FD15B05DF814FB1FB50020009001908F
:1033200002900390684601F093FC38B9019A91B27B
:10333000009801F0F2FC684600F0CEFD1FBD2DE9BB
:10334000F043A9B081460020289027902690259030
:1033500024900027804600250024484600F004FE03
:103360000746032F06D0042F48D0092F4FD00D2F2A
:1033700062D15AE0B34824A925AA28ABCDE900219F
:10338000029026AA27A9484601F0B7FA8046B8F16C
:10339000000F32D10026BDF894002899CDE9001025
:1033A000BDF89830A8A18C48279AFEF79DFEB5A1DC
:1033B000279802F01AF90646F6B12F21304602F09E
:1033C000F8F80646761C2422314603A802F06EF96E
:1033D00000208DF8300003A8AFF2B841AFF2D0431F
:1033E000ABA2CDE9001050210DA801F035FEAFA130
:1033F0000DA8FFF739FF00BF00BF00BF484601F02E
:103400007CFB18B9ABA17448FEF76EFE17E0484686
:1034100001F0BEF920B9AFA16F48FEF765FE03E0E9
:10342000B3A16D48FEF760FE09E0484601F028FCB4
:1034300008B1FFF771FF02E04FF0FF3800BF00BF97
:1034400001F026FC08F1010010B929B0BDE8F083B5
:103450003A21289802F0ADF80546002D57D008F122
:103460000100002853D06D1C05E015F8012B204603
:10347000641C21A90A542878302802DB28783928CE
:10348000F3DD002021A9085521A802F085F80446A3
:103490009EA1289802F0A9F850B1012C03D1012077
:1034A000FEF767FD33E014BB0020FEF762FD2EE05F
:1034B00098A1289802F099F850B1012C03D101206D
:1034C000FEF746FD23E094B90020FEF741FD1EE023
:1034D00092A1289802F089F850B1012C03D1012063
:1034E000FEF725FD13E014B90020FEF720FD0EE0E5
:1034F0008CA1289802F079F848B1012C03D1012061
:10350000FEF704FD03E014B90020FEF7FFFC0F2FC7
:1035100001D0032F05D1279801F047FD289801F02D
:1035200044FD00BF91E70000224D5132223A5B7BFF
:103530002276223A2533667D5D2C0000480000206B
:10354000224D5134223A5B7B2276223A2533667D26
:103550005D2C00002C000020224C65644231322298
:103560003A5B7B2276223A25647D5D2C00000000C8
:10357000224C6564423133223A5B7B2276223A2523
:10358000647D5D2C00000000224C656442313422D1
:103590003A5B7B2276223A25647D5D2C0000000098
:1035A000224C6564423135223A5B7B2276223A25F1
:1035B000647D5D007D7D0000546970733A094F6E33
:1035C000654E65745F53656E64446174612D4D5141
:1035D00054540D0A000000000038014053656E6429
:1035E0002025642042797465730D0A005741524EBC
:1035F0003A094544505F4E657742756666657220AC
:103600004661696C65640D0A000000005075626CCB
:1036100069736820546F7069633A2025732C204DBC
:1036200073673A2025730D0A00000000537562731A
:10363000637269626520546F7069633A2025730D67
:103640000A00000068000020746F7069633A20254A
:10365000732C20746F7069635F6C656E3A2025640B
:103660002C207061796C6F61643A2025732C207076
:1036700061796C6F61645F6C656E3A2025640D0A38
:1036800000000000726571756573742F0000000002
:10369000247379732F25732F25732F636D642F7215
:1036A0006573706F6E73652F257300006F6A626BB0
:1036B00000000000546970733A094D515454205071
:1036C00075626C6973682053656E64204F4B0D0AF8
:1036D00000000000546970733A094D51545420534E
:1036E0007562736372696265204F4B0D0A000000BA
:1036F000546970733A094D51545420537562736381
:1037000072696265204572720D0A00004C65644260
:10371000313200004C656442313300004C65644234
:10372000313400004C65644231350000F0B5044688
:10373000142C06DA01EA020523EA010685EA0600EE
:1037400019E0282C04DA81EA020787EA030012E074
:103750003C2C0ADA01EA020501EA030787EA0506BA
:1037600002EA030787EA060005E0502C03DA81EA43
:10377000020787EA0300F0BD0146142901DAFE487A
:103780000AE0282901DAFD4806E03C2901DAFC4874
:1037900002E0502900DAFB487047F0B502460120EC
:1037A0009040441EE54301EA050020FA02F601EAD2
:1037B0000400C2F1200C00FA0CF746EA0703184691
:1037C000F0BDF0B50246C2F1200C012000FA0CF069
:1037D000441EE54301EA040000FA02F601EA05008E
:1037E000C2F1200C20FA0CF746EA07031846F0BD98
:1037F0002DE9F04FDDB007468A4615460AF1080963
:1038000009F101094FEACA005B9048464FEAE971A5
:1038100009EB91618E1148464FEAE97109EB91611C
:103820008911A9EB81115C915C98002800DD761C60
:103830005C98C0F140008144D04604E0002007F8C5
:10384000080008F10108B8EB861FF7DB802007F8B5
:103850000A000121C1EB86115B9878545B98C0F394
:1038600007200221C1EB861178545B98C0F3074012
:103870000321C1EB861178545B98000E0421C1EB43
:1038800086117854C0485690C0485790BE48C043EF
:103890005890BE48C0435990BD485A904FF0000818
:1038A000A5E0002452E0102C32D24FEA881000EB41
:1038B0008400385C000601A941F824004FEA881012
:1038C00000EB8400401C385C51F824104FF4803227
:1038D00002FB001001A941F824004FEA881000EB18
:1038E0008400801C385C51F82410121202FB001076
:1038F00001A941F824004FEA881000EB8400C01CA5
:10390000385C51F82410084401A941F824001CE057
:10391000502C1AD2E01E01AA52F82000A4F108028D
:1039200001AB53F822205040A4F10E0253F822209C
:103930005040A4F1100253F8222080EA0201012035
:10394000FFF73FFF01A941F82400641C502CAAD3C3
:10395000569855905798549058985390599852901B
:103960005A98519000242AE005205599FFF729FF25
:1039700083462046529B539A5499FFF7D7FE5844EA
:10398000009051990098084400902046FFF7F4FEFB
:1039900000990844009001A850F8241000980844A9
:1039A000009052985190539852901E205499FFF7CE
:1039B00008FF53905598549000985590641C502CD3
:1039C000D2D356995598084456905799549808441C
:1039D00057905899539808445890599952980844C8
:1039E00059905A99519808445A9008F10108B045E5
:1039F000FFF657AF5698E8705698000AA870569888
:103A0000000C68705698000E28705798E871579807
:103A1000000AA8715798000C68715798000E287119
:103A20005898E8725898000AA8725898000C687262
:103A30005898000E28725998E8735998000AA8738C
:103A40005998000C68735998000E28735A98E874B6
:103A50005A98000AA8745A98000C68745A98000E74
:103A600028745DB0BDE8F08F2DE9F04FADF58E5DA7
:103A700007460E46924698460DF58050D0F8E491E0
:103A800040254FF0360B5C21C0F8BC11002405E046
:103A9000002041F27C1169440855641C402CF7DB7E
:103AA000AE421FD0AE4210DD4A4631463846FFF7DF
:103AB0009FFE002406E019F8040041F27C116944DD
:103AC0000855641C142CF6DB16E0AE4214DA002410
:103AD00005E0385D41F27C1169440855641CB4422C
:103AE000F7DB09E0002405E0385D41F27C11694410
:103AF0000855641CAC42F7DB00240AE041F27C105C
:103B00006844005D80EA0B0041F23C1169440855AD
:103B1000641C402CF2DB002406E041F23C106844B7
:103B2000005D1FA90855641C402CF6DB002406E04C
:103B30001AF804101FAA04F140001154641C4445F3
:103B4000F6DB08EB05014A461FA8FFF751FE0024EB
:103B50000DE041F27C116944095D0DF58050D0F80B
:103B6000BC01414041F2FC026A441155641C402CE6
:103B7000EFDB002415E000009979825AA1EBD96EA1
:103B8000DCBC1B8FD6C162CA0123456789ABCDEF70
:103B9000F0E1D2C341F2FC006844005D0AA9085577
:103BA000641C402CF6DB002406E019F804100AAA75
:103BB00004F140001154641C142CF6DB4A4605F154
:103BC00014010AA8FFF714FE0DF58E5DBDE8F08F15
:103BD0002DE9F04F07468946099C00250026AC4692
:103BE000A846AA4600211CB900201060BDE8F08F4D
:103BF0000320B4FBF0F04FF0030BB4FBFBFE0BFB18
:103C00001E4BBBF1000F02D04FF0010B01E04FF053
:103C1000000B00EB0B06B6F1804F05D34FF0FF30E1
:103C200010606FF02900E1E7B600701C814500D3F9
:103C300027B9701C10606FF02900D7E70320B4FB90
:103C4000F0F000EB40060025394629E013F801CBDF
:103C500013F8018B13F801AB87484FEA9C0B10F85F
:103C60000B0001F8010B4FEA0C1000EB281000F0DC
:103C70003F00DFF804B21BF8000001F8010B4FEA27
:103C8000880000EBAA1000F03F001BF8000001F8CC
:103C9000010B0AF03F001BF8000001F8010BED1CBE
:103CA000B542D3D3A5422DD213F801CB681CA04254
:103CB00002D213F8010B00E0002080466E48CCF3DE
:103CC000850B10F80B0001F8010B4FEA0C1000EB0C
:103CD000281000F03F00DFF8A0B11BF8000001F849
:103CE000010B681CA04207D23F2000EA88001BF8A5
:103CF000000001F8010B02E03D2001F8010B3D201E
:103D000001F8010BC81B10600020087000BF6DE7B0
:103D10002DE9F047074689469046DDF820C000218E
:103D20000022002400260025002004460246014609
:103D300045E0002601E0491C761C614502D2585C32
:103D40002028F8D0614500D13BE0ACEB010002280F
:103D500007D3585C0D2804D1481C185C0A2800D1F0
:103D60002CE0585C0A2800D128E01EB16FF02B002F
:103D7000BDE8F087585C3D2806D1601C0446022847
:103D800002D96FF02B00F3E7585C7F2806DC585C03
:103D9000DFF8E8A01AF800007F2802D16FF02B00AE
:103DA000E6E7585CDFF8D4A01AF80000402803DAF0
:103DB00014B16FF02B00DBE7521C00BF491C6145BA
:103DC000B7D300BF1AB90020C8F80000D0E7D00868
:103DD00000EB40004FEA400A02F0070000EB400011
:103DE0004000C01D0AEBD002121B0FB1914504D256
:103DF000C8F800206FF02900BAE703240020064627
:103E000002463D4631E018780D2805D018780A287A
:103E100002D01878202800D125E01878DFF85CA0BF
:103E20001AF80000402801D1012000E00020241AE7
:103E30001878DFF848A01AF8000066F39F100646CD
:103E4000501C024604280DD1002214B1300C05F894
:103E5000010B012C02D9300A05F8010B022C01D903
:103E600005F8016B00BF491E5B1C0029CBD1E81B84
:103E7000C8F8000000207BE7147A0008547A000894
:103E800070B504460E460025206898B901202073BD
:103E9000304601F05BF820602068E0B100206060EF
:103EA000A66003E00020216848556D1CA068A84268
:103EB000F8D810E00220207303E000202168485564
:103EC0006D1CA068A842F8D800206060A068B042CD
:103ED00001D20020206070BD10B50446207B01286F
:103EE00002D1206801F061F8002020606060A060CD
:103EF000207310BD0246002301230DE002F07F0075
:103F00000870D2092AB1087840F080000870491C76
:103F100001E0184670475B1C042BEFDD4FF0FF30CB
:103F2000F8E7F0B504460D46264601230020106050
:103F3000002114E0775C07F07F07106807FB03009F
:103F40001060705C00F0800008B9481CF0BDDB0117
:103F5000B3F5001F02D36FF00100F7E7491CA94237
:103F6000E8DB4FF0FF30F1E7F8B50446FF27207893
:103F70000511012D01DB0E2D01DD3846F8BD032DA5
:103F800024D1002000906A460421601CFFF7C9FF7D
:103F90002044461C0098022803D3207800F001003A
:103FA00008B1FF20EAE77078317840EA0120801CF0
:103FB0000099884201D9FF20E0E7F8A1B01C01F088
:103FC00014FB08B10F2700E0032700E02F46384616
:103FD000D4E72DE9FF4F83B082468B469146159C6E
:103FE0000025002002900F270190484601F033FB86
:103FF0000FFA80F8B9F1000F03D1012007B0BDE836
:10400000F08F08F10200384487B2109808B145F0EB
:104010000205129878B145F00405129801F01BFBD7
:10402000C0B20290139801F016FB01460298001DE1
:104030000844384487B2119820B1012804D00228DE
:1040400008D104E000BF07E045F00C0504E045F0AE
:10405000140501E00220D1E700BF149808B145F033
:104060002405BAF1000F02D0BBF1000F01D10320EB
:10407000C4E745F0C005504601F0EDFA0646584643
:1040800001F0E9FA3044001D384487B23946204631
:10409000FFF7F6FE206808B90420AFE7394620682C
:1040A00001F049FB10216268501C60602068815457
:1040B000D4E90023D118781FFFF71CFF00B201904C
:1040C0000198002804DA2046FFF706FF052095E74F
:1040D000616801980844606000216268501C60605B
:1040E0002068815404216268501C606020688154FB
:1040F0004D216268501C60602068815451216268C3
:10410000501C60602068815454216268501C6060BB
:10411000206881546268501C6060206881540421CA
:104120006268501C6060206881546168481C60604F
:10413000206845540698010A6268501C6060206837
:1041400081540698C1B26268501C60602068815436
:10415000C8F307216268501C60602068815462685F
:10416000501C6060206800F80280D4E900128818B2
:104170004246494601F027FA60684044606005F015
:104180000400B8B30026139808B986A013901298BB
:1041900001F061FA86B2310A6268501C60602068E2
:1041A00081546268501C606020688654D4E9001213
:1041B00088183246129901F006FA6068304460604F
:1041C000139801F048FA86B2310A6268501C6060A8
:1041D000206881546268501C606020688654D4E96D
:1041E000001288183246139901F0EDF960683044E6
:1041F000606000BF05F08000C8B1504601F02BFAA6
:1042000086B2310A6268501C60602068815462681E
:10421000501C606020688654D4E900128818324629
:10422000514601F0D0F960683044606000BF05F08D
:104230004000C8B1584601F00EFA86B2310A6268F1
:10424000501C6060206881546268501C6060206867
:104250008654D4E9001288183246594601F0B3F961
:1042600060683044606000BF0020C7E610B50446B7
:1042700002212046FFF704FE206808B9012010BD86
:10428000E0216268501C60602068815400216268EF
:10429000501C6060206881540020F0E70146487897
:1042A000022801D001207047887810B18878012851
:1042B00001D1C878F7E7FF20F5E72DE9FF4F83B07C
:1042C000834617469946139C00250026002002903D
:1042D00001908046BBF1000F03D1012007B0BDE87B
:1042E000F08F00260AE00498805D232803D004980C
:1042F000805D2B2801D10220F0E7761C0498805DB8
:104300000028F0D148F03008119808B148F00108B1
:10431000B01C00EB0905109820B1012804D0022838
:104320000AD105E000BF09E048F00208AD1C05E035
:1043300048F00408AD1C01E00320CFE700BF67B3DD
:104340003878022821D14FF0000A00BF50460AF108
:10435000010A385C7D28F9D1AAF1030A0AF10700A5
:1043600002900298A9EB000AE81CA0EB0A01204683
:10437000FFF786FD206808B90420AFE7EA1CA2EB2E
:104380000A01206801F0D7F91FE0691D2046FFF7F8
:1043900077FD206840B90420A0E70AE02463726535
:1043A0007100000000000000691D206801F0C3F9E1
:1043B0000BE0691D2046FFF763FD206808B9042063
:1043C0008CE7691D206801F0B6F96168481C6060DF
:1043D000206800F80180D4E9000281182846FFF720
:1043E00089FD01900198002804DA2046FFF774FD4A
:1043F000052073E76168019808446060C6F30721EF
:104400006268501C6060206881546268501C606063
:1044100020688654D4E9001288183246049901F0C5
:10442000D2F8606830446060109860B14FEA1B2198
:104430006268501C6060206881546268501C606033
:10444000206800F802B0C7B1387802280BD1D4E94F
:10445000001288183946029A01F028F9616802981A
:104460000844606009E0D4E9001288184A463946D9
:1044700001F01CF960684844606000202EE72DE9D7
:10448000F04190B004460D4616469846169F2346C6
:10449000F7A2302104A8009500F0DEFD01200021E4
:1044A000CDE9000133460A4604A9CDE902070A20F6
:1044B000FFF703FF18B1012010B0BDE8F081002024
:1044C000FAE72DE9F04F85B080460D469146012070
:1044D00004900027002600244FF0000A404601F017
:1044E000BAF800F10D0B584600F030FD07461FB931
:1044F000049805B0BDE8F08F4246E3A1384600F0CD
:1045000095FD384601F0A7F8C6B2F01D00EB050A8C
:10451000AAEB050000F01AFD044624B9384600F065
:1045200044FD0498E5E70220207000206070A6702A
:1045300032463946E01C01F0B9F8290EF01C21542E
:10454000C5F30741301D2154C5F30721701D2154C7
:10455000B01D255401200021CDE90001534622461B
:10456000CDA1CDE902090A20FFF7A7FE08B9002076
:104570000490384600F019FD204600F016FD04981E
:10458000B7E72DE9F84380460C4615461E462F2115
:1045900008F1060001F00DF807460020009017B959
:1045A0000120BDE8F8837F1C6A46042108F1010060
:1045B000FFF7B7FC252000F0C9FC2060206808B98F
:1045C0000220EEE72521206801F0B5F824223946C3
:1045D000206801F06BF8243700982C38308031883F
:1045E000481C00F0B3FC2860286820B9206800F05F
:1045F000DCFC0320D5E73288511C286801F09BF8C9
:1046000032883946286801F051F80020C9E72DE9C1
:10461000FF5F07460D469046384601F01CF886B20B
:10462000284601F018F81FFA80FA4FF00009F01D33
:1046300000F08CFC04461CB9012004B0BDE8F09FDA
:10464000F11D204601F077F894A001682160808870
:10465000A08032463946204600F0B5FF284600F0DB
:10466000FAFF83460120002100915B462A46CDE9EE
:104670000208019121460A20FFF71FFE10B94FF0F2
:10468000000901E04FF00109204600F08EFC484689
:10469000D3E72DE9FF5F8046174699460E9C00261A
:1046A000B246B3460025B8F1000F03D1012004B093
:1046B000BDE8F09F0BE057F8250008B90220F6E7A7
:1046C00057F8250000F0C7FF0644681CC5B24D45E9
:1046D000F1DB09EB4900801C00EB060A0AF1050139
:1046E0002046FFF7CDFB206808B90320DFE78221D1
:1046F0006268501C606020688154D4E9000281180F
:104700005046FFF7F7FB0FFA80FBBBF1000F04DA0E
:104710002046FFF7E1FB0420C9E760685844606069
:104720004FEA18216268501C6060206881546268FA
:10473000501C6060206800F80280002524E057F8D3
:10474000250000F088FF0646C6F307216268501C6A
:104750006060206881546268501C606020688654E4
:10476000D4E90023D01857F82510324600F02BFF6B
:104770006068304460600198C1B26268501C60603B
:1047800020688154681CC5B24D45D8DB00208EE7F7
:104790000146FF208A78A2B9CA78142A11D10A7971
:1047A00032B1012A05D0022A04D0802A06D103E0C2
:1047B00000BF00BF002003E0012001E0022000BF95
:1047C00000BF70472DE9F05F80460F4691461C46BA
:1047D0000026B246B3460025B8F1000F02D10120F1
:1047E000BDE8F09F0BE057F8250008B90220F7E775
:1047F00057F8250000F02FFF0644681CC5B24D4550
:10480000F1DB022000EB490000EB060A0AF105018A
:104810002046FFF735FB206808B90320E0E7A22116
:104820006268501C606020688154D4E900028118DD
:104830005046FFF75FFB0FFA80FBBBF1000F04DA75
:104840002046FFF749FB0420CAE7606858446060CF
:104850004FEA18216268501C6060206881546268C9
:10486000501C6060206800F80280002538E00000DD
:10487000247379732F25732F25732F64702F706F16
:1048800073742F6A736F6E007B2264735F69642296
:104890003A222573227D0000246470002463727321
:1048A000702F000057F8250000F0D5FE0646C6F32D
:1048B00007216268501C6060206881546268501C47
:1048C000606020688654D4E90023D01857F825107A
:1048D000324600F078FE606830446060681CC5B203
:1048E0004D45DFDB00207BE7014601208A781AB9BD
:1048F000CA781E2A00D1002070472DE9FC5F81464E
:104900000D4614461E46DDE90C8B99F8000000F0B8
:104910000F0A002001900AF008000090CAF341003D
:104920008BF8000001AA042109F10100FFF7F9FA50
:104930004844471C0198022802D30AF0010010B134
:10494000FF20BDE8FC9F7878397840EA012020807C
:104950002088801C0199884201D9FF20F1E7AFF23D
:10496000C451B81C00F041FE08B10F20E9E79BF8E4
:10497000000020B101283DD0022877D13BE000980B
:1049800008B1FF20DDE72188481C00F0DFFA28602D
:10499000286808B9FF20D4E72288511C286800F055
:1049A000CAFE2288B91C286800F080FE0198801E8B
:1049B0002188401AA8F80000B8F80010481C00F040
:1049C000C5FA3060306820B9286800F0EEFAFF20A0
:1049D000B7E7B8F80020511C306800F0ACFEB8F81A
:1049E0000020B4F800C0BB1C0CEB0301306800F0E1
:1049F0005DFE4FE000BF2088801C0199884201D9EC
:104A0000FF209EE72088C01C395C2088801C385C11
:104A100041EA00210E9801800E9808B9FF2090E726
:104A20002188481C00F092FA2860286808B9FF2005
:104A300087E72288511C286800F07DFE2288B91C77
:104A4000286800F033FE0198001F2188401AA8F85A
:104A50000000B8F80010481C00F078FA30603068A8
:104A600028B9286800F0A1FAFF206AE710E0B8F83A
:104A70000020511C306800F05EFEB8F80020B4F849
:104A800000C03B1D0CEB0301306800F00FFE01E09D
:104A9000FF2056E700BF2B21284600F08AFD20B9F1
:104AA0002321284600F085FD08B1FF2049E70020BA
:104AB00047E770B505460C4604212046FFF7E0F9AC
:104AC000206808B9012070BD40216268501C6060F8
:104AD0002068815402216268501C60602068815403
:104AE00029126268501C6060206881546268501C02
:104AF0006060206885540020E5E701464878022878
:104B000001D001207047887820B9C8780A2801D1DF
:104B10000020F7E70120F5E770B505460C460421B3
:104B20002046FFF7ADF9206808B9012070BD50217B
:104B30006268501C60602068815402216268501CC9
:104B400060602068815429126268501C606020688F
:104B500081546268501C6060206885540020E5E73D
:104B600001464878022801D001207047887820B992
:104B7000C8780A2801D10020F7E70120F5E770B5D1
:104B800005460C4604212046FFF77AF9206808B94B
:104B9000012070BD62216268501C606020688154F1
:104BA00002216268501C606020688154291262688A
:104BB000501C6060206881546268501C60602068EE
:104BC00085540020E5E702465078022801D00120F4
:104BD00070479078B0EB112F05D1D078CBB29842C6
:104BE00001D10020F4E70120F2E770B505460C463C
:104BF00004212046FFF744F9206808B9012070BD60
:104C000070216268501C60602068815402216268D3
:104C1000501C60602068815429126268501C6060DA
:104C2000206881546268501C6060206885540020B0
:104C3000E5E701464878022801D0012070478878CE
:104C400020B9C8780A2801D10020F7E70120F5E74C
:104C500010B5044602212046FFF712F9206808B972
:104C6000012010BDC0216268501C60602068815422
:104C700000216268501C6060206881540020F0E7C9
:104C80000146487808B1012070470020FCE7000089
:104C900010B54FF40071784800F04DFD00207749C1
:104CA000088010BD7548008808B901207047734816
:104CB000008873490988884203D100206F49088021
:104CC000F4E76E4800886E4908800120EEE72DE980
:104CD000F04104460D46C826204600F0BCFC87B2D1
:104CE0003A4621466748FDF7E6F90FE0FFF7DAFF9D
:104CF00048B92946604800F078FC20B1FFF7C8FFAA
:104D00000020BDE8F0810A20FDF7BCF83000A6F1D4
:104D10000101CEB2EAD10120F3E730B589B00446F3
:104D20000D46FFF7B5FF2A4657A101A800F07EF90E
:104D300059A101A8FFF7CBFF20B92A4621465148C7
:104D4000FDF7B9F909B030BD70B50546002400BFC4
:104D5000FFF7A8FF80B951A1474800F046FC044680
:104D600054B13A21204600F024FC044614B1641CDE
:104D7000204670BD0020FCE70520FDF783F82800E1
:104D8000A5F101018DB2E3D100BFF2E710B5002219
:104D90004FF480714348FBF79CFDFA20FDF772F851
:104DA000012211023F48FBF794FD4FF4FA70FDF722
:104DB00069F8FFF76DFF3CA13D48FDF795F903E069
:104DC0004FF4FA70FDF75EF83AA13BA0FFF77FFFC2
:104DD0000028F5D13AA13648FDF786F903E04FF4F3
:104DE000FA70FDF74FF833A138A0FFF770FF0028E5
:104DF000F5D13AA12E48FDF777F903E04FF4FA70A8
:104E0000FDF740F82BA139A0FFF761FF0028F5D18D
:104E10003AA12748FDF768F903E04FF4FA70FDF76F
:104E200031F839A13AA0FFF752FF0028F5D141A18E
:104E30001F48FDF759F910BD10B540F22551114832
:104E4000FCF776F9B8B10D480088B0F5007F02D3C1
:104E500000200A4908800B48001D0088C1B207489D
:104E600002880088401C054B18800348815420218B
:104E70000448FCF754F910BDF00000206A0000203F
:104E80006C0000200044004041542B4349505345DE
:104E90004E443D25640D0A003E0000004950442C5C
:104EA00000000000000C0140312E2041540D0A008A
:104EB000003801404F4B000041540D0A0000000033
:104EC000322E2043574D4F44450D0A0041542B4389
:104ED000574D4F44453D310D0A000000332E20410F
:104EE000542B4357444843500D0A000041542B4370
:104EF00057444843503D312C310D0A00342E204395
:104F0000574A41500D0A0000474F542049500000B5
:104F100041542B43574A41503D2243552D4335318F
:104F200044222C2231333834313833393635392262
:104F30000D0A0000352E20455350383236362049B0
:104F40006E6974204F4B0D0A0000000070B50646D4
:104F500000F03EFC056806F10B0020F00704B442A7
:104F60009CBF002070BD2B466A68BAB11068A04291
:104F700010D304F1080188423CBF5068586007D341
:104F80005168101941601168091B01605860146074
:104F9000101D70BD13465268002AE7D121462846ED
:104FA00000F022FC0028DED170BD70B50446051F5C
:104FB00000F00EFC0068002C14BF446870BD002C8B
:104FC00018BFAC423CBF20466468F8D301680A1899
:104FD000AA4218BF456003D12A6805461144016002
:104FE00028684119A1421CBF6C6070BD616869608E
:104FF00021680844286070BD7CB51D4616460C002B
:10500000009001D02044401E074B7B442A4669464D
:105010000190304600F0C3FE05461CB100206946F1
:1050200000F0D0FE28467CBDC10D00000FB41CB5B9
:10503000084B06AA7B4469460090059800F0AFFE35
:1050400004460020694600F0BDFE20461CBC5DF809
:1050500014FB00008D0D00000FB47CB50C0009AAF4
:10506000009001D02044401E084B7B4469460190CB
:10507000089800F094FE05461CB10020694600F037
:10508000A1FE28467CBC5DF814FB0000610D000009
:1050900070B5044685690068C10601D5302600E078
:1050A0002026C00707D070BDD4E9012130469047C3
:1050B000206A401C20626D1EF6D570BD70B5044696
:1050C00085690078C00707D170BDD4E9012120208F
:1050D0009047206A401C20626D1EF6D570BD70B5E9
:1050E0000C460546012A05D02878800600D5EA69D5
:1050F000002302E0012305E05B1C934202D2E05C46
:105100000028F9D1A869E618C01AA861286A1844CD
:1051100028622846FFF7BCFF04E0D5E9012114F816
:10512000010B9047B442F8D32846FFF7C7FF70BD84
:105130002DE9F0410646002410687529314616A570
:1051400010D000F09BFB002802DA404213A507E0D4
:1051500031688A0701D512A502E0490704D511A5D7
:10516000012401E000F093FB00210A2206F124074C
:1051700009E0B0FBF2FCB0FBF2F302FB1C003030A4
:1051800078541846491C0028F3D123462A46304655
:10519000BDE8F04100F084BB000000002D000000DD
:1051A0002B000000200000002DE9F05F8946044636
:1051B0004FF0000ADFF874B1FB44C0F820A020468D
:1051C000E1688847002874D0252806D0D4E9012159
:1051D0009047206A401C2062F1E700265F46204687
:1051E000E16888472028054607DB312D05D278196C
:1051F00010F8200C08B10643F1E7B00701D526F0FE
:105200000406C4F81CA00027C4F818A02A2D09D051
:10521000284601F0C2FF38B304EB8708303DC8F8D8
:10522000185019E059F8041B204604EB87029161DD
:10523000E1688847012F054618D1E069002820DA87
:1052400026F020061DE0D8F8180000EB800005EBE2
:1052500040003038C8F818002046E1688847054605
:1052600001F09BFF0028EED1012F0AD02E2D08D18E
:105270002046E16888477F1C0546022F46F020063D
:10528000C4DBA069002803DA404246F00106A061B1
:10529000F00701D026F010066C2D0BD0682D09D038
:1052A0004C2D39D06A2D35D0742D35D07A2D33D090
:1052B00016E038E0E1682F4620468847B8420546A8
:1052C00009D16C2F26D04FF48060E1680643204658
:1052D0008847054604E06C2F1AD04FF480700643CF
:1052E0000DB3A5F14100192802D8203546F4006617
:1052F0004A462946204626604E46FAF753FF80B1BB
:1053000001280BD0F61D26F0070000F1080956E72A
:105310004020E4E78020D8E70020D6E706F1040922
:105320004DE7284652E7206ABDE8F09F18290000A3
:105330000FB400B58DB010A9099000910B904FF0FB
:10534000FF300A9000200C900648784406900648EA
:1053500078446A4607900F9909A800F089FE0DB0BD
:105360005DF814FB430D00005B0D00002DE9FF5FAD
:105370001D464FF0FF3B91464FF000085F46D5E9D0
:105380000146A96901987F1C8847296A8246884797
:105390000028F6D1BAF1FF3F0CD0002E24F4C064EF
:1053A00019DD600614D5BAF12B0F09D0BAF12D0F13
:1053B0000ED103E0584604B0BDE8F09F44F4806489
:1053C000A96901987F1C8847761E8246002E02DD5F
:1053D000BAF1300F03D0B9F1000F26D032E0A9693D
:1053E000761E01987F1C44F400748847002E824684
:1053F00005DDBAF1780F06D0BAF1580F03D0B9F134
:10540000000F10D01EE0B9F1000F02D0B9F1100F5B
:1054100018D1A969761E01987F1C24F4007488476E
:105420008246102002E0082000E00A20814609E0C0
:10543000A96908FB0908761E01987F1C44F40074D2
:1054400088478246002E05DD4946504600F0FCFDA7
:105450000028EDDAE96901988847A00502D46FF0C9
:105460000100A8E7E00725D1600613D5600502D545
:10547000C8F1000000E0404629680A1D2A6009685A
:10548000220501D5087015E0220701D5088011E03A
:1054900008600FE02868011D29600068210502D519
:1054A00080F8008006E0210702D5A0F8008001E026
:1054B000C0F8008038467EE72DE9FF5F4FF0000816
:1054C0009946144646469169D2E901A7DDF838B0FD
:1054D00001988847054659EA0B0005D009E0A16903
:1054E0000198761C88470546216A28468847002887
:1054F000F5D1681C03D05FEACA7005D015E04FF003
:10550000FF3004B0BDE8F09F2068011D2160D0F895
:1055100000800AE05FEACA7001D108F8015BA16966
:10552000761C01987F1E88470546002F1ADD681CEF
:1055300018D0B9F1000F0DD0E81705EBD06042117B
:1055400020F01F0059F822102A1A01209040014231
:10555000E0D107E0BBF1000FDCD12846216A884783
:105560000028D7D0E16901988847BBF1000F07D127
:10557000002E05DD5FEACA7002D1002188F8001014
:10558000A068B84203DDBBF1000F03D017B16FF084
:105590000100B6E73046B4E770B5064600F01CF9E6
:1055A0000468054630460A22002100F091FD2C6077
:1055B00070BD401ECAB210F8011F8A4202D00029F5
:1055C000F9D10020704710B5431E13F8014F002C8D
:1055D000FBD105E011F8014B002C03F8014B03D07F
:1055E000521EF7D20021197010BD30B505460B468A
:1055F0002A4613F8014B12F8010B08B1A042F8D06B
:105600001CB1002802D06D1CF1E7284630BD40EAED
:105610000103024630B59B0710D14FF0013400E082
:1056200008C208C91D1B9D4315EAC41FF8D013F01A
:10563000FF0102F8011B0DD01B0AF8E711F8013B2E
:10564000002B02F8013B05D011F8013B002B02F8BA
:10565000013BF3D130BD10B5431C02E010F8011B33
:1056600071B18107FAD14FF0013202C88C1A8C4314
:1056700014EAC211F9D0C01A0A0603D0C01E10BD28
:10568000C01A10BD0A0401D0801E10BD0902FCD052
:10569000401E10BD421E12F8013F002BFBD111F835
:1056A000013B002B02F8013BF9D17047032A40F27D
:1056B000308010F0030C00F0158011F8013BBCF1B4
:1056C000020F624498BF11F801CB00F8013B38BFCC
:1056D00011F8013BA2F1040298BF00F801CB38BFDA
:1056E00000F8013B11F0030300F02A85083AC0F0EE
:1056F000088051F8043B083A51F804CBA0E80810A0
:10570000F5E7121D5CBF51F8043B40F8043BAFF3D2
:105710000080D20724BF11F8013B11F801CB48BF2C
:1057200011F8012B24BF00F8013B00F801CB48BF62
:1057300000F8012B70474FF000020429C0F01280DE
:1057400010F0030C00F01B80CCF1040CBCF1020F34
:1057500018BF00F8012BA8BF20F8022BA1EB0C0109
:1057600000F00DB85FEAC17C24BF00F8012B00F8FF
:10577000012B48BF00F8012B70474FF0000200B525
:10578000134694469646203922BFA0E80C50A0E864
:105790000C50B1F12001BFF4F7AF090728BFA0E812
:1057A0000C5048BF0CC05DF804EB890028BF40F8DE
:1057B000042B08BF704748BF20F8022B11F0804F20
:1057C00018BF00F8012B7047704770477047000002
:1057D00000487047F802002000487047F00200209F
:1057E000704770477047704738B504460A46002036
:1057F0006946AFF30080002808BF38BD0246009913
:10580000204600F0DFFC012038BD012001F030B857
:10581000F8B5AFF30080054600200C46102000BF0D
:105820000646A819A0420DD9324669460020AFF3BA
:105830000080070008BF01F01BF80098A04218BFC5
:105840000546C419FFF7C4FF05600746F01D20F0A8
:1058500007004619284600F00AF8B44208BFF8BD10
:10586000A21B31463868BDE8F84000F0ABBC00210F
:105870000160C0E9011070471020704709684A05AF
:1058800001D540B27047C905FCD500B27047096820
:105890004A0501D5C0B27047C905FCD580B2704732
:1058A0002DE9F0470D4699469246044600F124083A
:1058B0000168880604D5E06921F01001216000E04C
:1058C0000120A84201DD471B00E00027A1697A19E9
:1058D00002EB0900081AA0612078C00602D4204615
:1058E000FFF7D6FB002608E0D4E901211AF80600EC
:1058F0009047206A401C761C20624E45F4DB2078DD
:10590000C0060AD52046FFF7C3FB06E0D4E9012113
:1059100030209047206A401C2062381EA7F1010702
:10592000F4DC07E0D4E9012118F805009047206A6B
:10593000401C2062281EA5F10105F3DC2046FFF77C
:10594000BDFB2078000602D50220BDE8F0870120CB
:10595000FBE711680268006A530501D508700AE088
:10596000D30501D5088006E0130603D5C217C1E9A7
:10597000000200E008600120704770472DE9FF4FEA
:105980000C461E464FF0FF378BB0D2E90001DDF820
:1059900060800A908A46C1F30A5505B93D46002148
:1059A00008464FF00000BAF1000F00F4400005DA9D
:1059B00000EB80004FF4400101EA50004FEA90599B
:1059C000B9F1010F00DDB9460A9850EA4A000ED03D
:1059D00044F61050A5F2FF3545432F14B8F1000FDF
:1059E0001ED07542291E1EDDC9F100021CE0B8F16F
:1059F000010F4FF0000001D0302103E0F24305E039
:105A00002154401CB042FBDB3046002200212154CF
:105A10000B99C1F80880C1E900200FB0BDE8F08FF4
:105A2000BD1B6D1CDEE74A4600DA694206A800F09D
:105A300091FE06AB93E8070003AB83E807005046EE
:105A40000A9900F0DBFF8DE80700A0F500501F3831
:105A500000900398002D09DD42F21F014A460844D8
:105A600003A90390684601F03AFA08E0A0F5005057
:105A70004A461F3803A90390684601F044FA8DE8AE
:105A800007000004000C03D04FF0FF30410800E095
:105A90001046B8F1000F03D00022009215461EE018
:105AA000751E05D400F0A8FB303262556D1EF9D585
:105AB000B3460122084302D000227F1C04E0207874
:105AC000302801D100227F1E002A099786D01DE0D0
:105AD000112D07DA00F090FB303262556D1C50EA50
